{
  "contractName": "BiometricStorage",
  "abi": [
    {
      "anonymous": false,
      "inputs": [
        {
          "indexed": false,
          "internalType": "uint256",
          "name": "id",
          "type": "uint256"
        },
        {
          "indexed": false,
          "internalType": "string",
          "name": "name",
          "type": "string"
        },
        {
          "indexed": false,
          "internalType": "uint8",
          "name": "age",
          "type": "uint8"
        },
        {
          "indexed": false,
          "internalType": "string",
          "name": "gender",
          "type": "string"
        },
        {
          "indexed": false,
          "internalType": "string",
          "name": "dataHash",
          "type": "string"
        }
      ],
      "name": "RecordAdded",
      "type": "event"
    },
    {
      "inputs": [
        {
          "internalType": "uint256",
          "name": "",
          "type": "uint256"
        }
      ],
      "name": "biometricRecords",
      "outputs": [
        {
          "internalType": "uint256",
          "name": "id",
          "type": "uint256"
        },
        {
          "internalType": "string",
          "name": "name",
          "type": "string"
        },
        {
          "internalType": "uint8",
          "name": "age",
          "type": "uint8"
        },
        {
          "internalType": "string",
          "name": "gender",
          "type": "string"
        },
        {
          "internalType": "string",
          "name": "dataHash",
          "type": "string"
        }
      ],
      "stateMutability": "view",
      "type": "function",
      "constant": true
    },
    {
      "inputs": [],
      "name": "recordCount",
      "outputs": [
        {
          "internalType": "uint256",
          "name": "",
          "type": "uint256"
        }
      ],
      "stateMutability": "view",
      "type": "function",
      "constant": true
    },
    {
      "inputs": [
        {
          "internalType": "string",
          "name": "_name",
          "type": "string"
        },
        {
          "internalType": "uint8",
          "name": "_age",
          "type": "uint8"
        },
        {
          "internalType": "string",
          "name": "_gender",
          "type": "string"
        },
        {
          "internalType": "string",
          "name": "_dataHash",
          "type": "string"
        }
      ],
      "name": "addBiometricRecord",
      "outputs": [],
      "stateMutability": "nonpayable",
      "type": "function"
    },
    {
      "inputs": [
        {
          "internalType": "uint256",
          "name": "_id",
          "type": "uint256"
        }
      ],
      "name": "getBiometricRecord",
      "outputs": [
        {
          "components": [
            {
              "internalType": "uint256",
              "name": "id",
              "type": "uint256"
            },
            {
              "internalType": "string",
              "name": "name",
              "type": "string"
            },
            {
              "internalType": "uint8",
              "name": "age",
              "type": "uint8"
            },
            {
              "internalType": "string",
              "name": "gender",
              "type": "string"
            },
            {
              "internalType": "string",
              "name": "dataHash",
              "type": "string"
            }
          ],
          "internalType": "struct BiometricStorage.BiometricData",
          "name": "",
          "type": "tuple"
        }
      ],
      "stateMutability": "view",
      "type": "function",
      "constant": true
    }
  ],
  "bytecode": "0x608060405234801561001057600080fd5b50610f41806100206000396000f3fe608060405234801561001057600080fd5b506004361061004c5760003560e01c8063741af3e61461005157806388557f4e14610081578063900407bc146100b55780639f7490bb146100d3575b600080fd5b61006b600480360381019061006691906106b5565b6100ef565b6040516100789190610821565b60405180910390f35b61009b600480360381019061009691906106b5565b610349565b6040516100ac9594939291906108ab565b60405180910390f35b6100bd610524565b6040516100ca9190610913565b60405180910390f35b6100ed60048036038101906100e89190610a8f565b61052a565b005b6100f7610639565b60008211801561010957506001548211155b610148576040517f08c379a000000000000000000000000000000000000000000000000000000000815260040161013f90610b96565b60405180910390fd5b6000808381526020019081526020016000206040518060a00160405290816000820154815260200160018201805461017f90610be5565b80601f01602080910402602001604051908101604052809291908181526020018280546101ab90610be5565b80156101f85780601f106101cd576101008083540402835291602001916101f8565b820191906000526020600020905b8154815290600101906020018083116101db57829003601f168201915b505050505081526020016002820160009054906101000a900460ff1660ff1660ff16815260200160038201805461022e90610be5565b80601f016020809104026020016040519081016040528092919081815260200182805461025a90610be5565b80156102a75780601f1061027c576101008083540402835291602001916102a7565b820191906000526020600020905b81548152906001019060200180831161028a57829003601f168201915b505050505081526020016004820180546102c090610be5565b80601f01602080910402602001604051908101604052809291908181526020018280546102ec90610be5565b80156103395780601f1061030e57610100808354040283529160200191610339565b820191906000526020600020905b81548152906001019060200180831161031c57829003601f168201915b5050505050815250509050919050565b600060205280600052604060002060009150905080600001549080600101805461037290610be5565b80601f016020809104026020016040519081016040528092919081815260200182805461039e90610be5565b80156103eb5780601f106103c0576101008083540402835291602001916103eb565b820191906000526020600020905b8154815290600101906020018083116103ce57829003601f168201915b5050505050908060020160009054906101000a900460ff169080600301805461041390610be5565b80601f016020809104026020016040519081016040528092919081815260200182805461043f90610be5565b801561048c5780601f106104615761010080835404028352916020019161048c565b820191906000526020600020905b81548152906001019060200180831161046f57829003601f168201915b5050505050908060040180546104a190610be5565b80601f01602080910402602001604051908101604052809291908181526020018280546104cd90610be5565b801561051a5780601f106104ef5761010080835404028352916020019161051a565b820191906000526020600020905b8154815290600101906020018083116104fd57829003601f168201915b5050505050905085565b60015481565b6001600081548092919061053d90610c45565b91905055506040518060a0016040528060015481526020018581526020018460ff1681526020018381526020018281525060008060015481526020019081526020016000206000820151816000015560208201518160010190816105a19190610e39565b5060408201518160020160006101000a81548160ff021916908360ff16021790555060608201518160030190816105d89190610e39565b5060808201518160040190816105ee9190610e39565b509050507f94bdd738fcf7fd44b3bc9093b89997de982b07ca01806ab16e71c06fa9c818af6001548585858560405161062b9594939291906108ab565b60405180910390a150505050565b6040518060a001604052806000815260200160608152602001600060ff16815260200160608152602001606081525090565b6000604051905090565b600080fd5b600080fd5b6000819050919050565b6106928161067f565b811461069d57600080fd5b50565b6000813590506106af81610689565b92915050565b6000602082840312156106cb576106ca610675565b5b60006106d9848285016106a0565b91505092915050565b6106eb8161067f565b82525050565b600081519050919050565b600082825260208201905092915050565b60005b8381101561072b578082015181840152602081019050610710565b60008484015250505050565b6000601f19601f8301169050919050565b6000610753826106f1565b61075d81856106fc565b935061076d81856020860161070d565b61077681610737565b840191505092915050565b600060ff82169050919050565b61079781610781565b82525050565b600060a0830160008301516107b560008601826106e2565b50602083015184820360208601526107cd8282610748565b91505060408301516107e2604086018261078e565b50606083015184820360608601526107fa8282610748565b915050608083015184820360808601526108148282610748565b9150508091505092915050565b6000602082019050818103600083015261083b818461079d565b905092915050565b61084c8161067f565b82525050565b600082825260208201905092915050565b600061086e826106f1565b6108788185610852565b935061088881856020860161070d565b61089181610737565b840191505092915050565b6108a581610781565b82525050565b600060a0820190506108c06000830188610843565b81810360208301526108d28187610863565b90506108e1604083018661089c565b81810360608301526108f38185610863565b905081810360808301526109078184610863565b90509695505050505050565b60006020820190506109286000830184610843565b92915050565b600080fd5b600080fd5b7f4e487b7100000000000000000000000000000000000000000000000000000000600052604160045260246000fd5b61097082610737565b810181811067ffffffffffffffff8211171561098f5761098e610938565b5b80604052505050565b60006109a261066b565b90506109ae8282610967565b919050565b600067ffffffffffffffff8211156109ce576109cd610938565b5b6109d782610737565b9050602081019050919050565b82818337600083830152505050565b6000610a06610a01846109b3565b610998565b905082815260208101848484011115610a2257610a21610933565b5b610a2d8482856109e4565b509392505050565b600082601f830112610a4a57610a4961092e565b5b8135610a5a8482602086016109f3565b91505092915050565b610a6c81610781565b8114610a7757600080fd5b50565b600081359050610a8981610a63565b92915050565b60008060008060808587031215610aa957610aa8610675565b5b600085013567ffffffffffffffff811115610ac757610ac661067a565b5b610ad387828801610a35565b9450506020610ae487828801610a7a565b935050604085013567ffffffffffffffff811115610b0557610b0461067a565b5b610b1187828801610a35565b925050606085013567ffffffffffffffff811115610b3257610b3161067a565b5b610b3e87828801610a35565b91505092959194509250565b7f5265636f726420646f6573206e6f742065786973740000000000000000000000600082015250565b6000610b80601583610852565b9150610b8b82610b4a565b602082019050919050565b60006020820190508181036000830152610baf81610b73565b9050919050565b7f4e487b7100000000000000000000000000000000000000000000000000000000600052602260045260246000fd5b60006002820490506001821680610bfd57607f821691505b602082108103610c1057610c0f610bb6565b5b50919050565b7f4e487b7100000000000000000000000000000000000000000000000000000000600052601160045260246000fd5b6000610c508261067f565b91507fffffffffffffffffffffffffffffffffffffffffffffffffffffffffffffffff8203610c8257610c81610c16565b5b600182019050919050565b60008190508160005260206000209050919050565b60006020601f8301049050919050565b600082821b905092915050565b600060088302610cef7fffffffffffffffffffffffffffffffffffffffffffffffffffffffffffffffff82610cb2565b610cf98683610cb2565b95508019841693508086168417925050509392505050565b6000819050919050565b6000610d36610d31610d2c8461067f565b610d11565b61067f565b9050919050565b6000819050919050565b610d5083610d1b565b610d64610d5c82610d3d565b848454610cbf565b825550505050565b600090565b610d79610d6c565b610d84818484610d47565b505050565b5b81811015610da857610d9d600082610d71565b600181019050610d8a565b5050565b601f821115610ded57610dbe81610c8d565b610dc784610ca2565b81016020851015610dd6578190505b610dea610de285610ca2565b830182610d89565b50505b505050565b600082821c905092915050565b6000610e1060001984600802610df2565b1980831691505092915050565b6000610e298383610dff565b9150826002028217905092915050565b610e42826106f1565b67ffffffffffffffff811115610e5b57610e5a610938565b5b610e658254610be5565b610e70828285610dac565b600060209050601f831160018114610ea35760008415610e91578287015190505b610e9b8582610e1d565b865550610f03565b601f198416610eb186610c8d565b60005b82811015610ed957848901518255600182019150602085019450602081019050610eb4565b86831015610ef65784890151610ef2601f891682610dff565b8355505b6001600288020188555050505b50505050505056fea2646970667358221220f943b4b26212680efb299c45abc23d056c7864c50b9605cd868c8e7cd771a95a64736f6c63430008110033",
  "immutableReferences": {},
  "source": "// backend/contracts/BiometricStorage.sol\n\n// SPDX-License-Identifier: MIT\npragma solidity ^0.8.0;\n\ncontract BiometricStorage {\n    struct BiometricData {\n        uint256 id;\n        string name;\n        uint8 age;\n        string gender;\n        string dataHash; // Hash of the biometric data\n    }\n\n    mapping(uint256 => BiometricData) public biometricRecords;\n    uint256 public recordCount;\n\n    event RecordAdded(uint256 id, string name, uint8 age, string gender, string dataHash);\n\n    function addBiometricRecord(\n        string memory _name,\n        uint8 _age,\n        string memory _gender,\n        string memory _dataHash\n    ) public {\n        recordCount++;\n        biometricRecords[recordCount] = BiometricData(recordCount, _name, _age, _gender, _dataHash);\n        emit RecordAdded(recordCount, _name, _age, _gender, _dataHash);\n    }\n\n    function getBiometricRecord(uint256 _id) public view returns (BiometricData memory) {\n        require(_id > 0 && _id <= recordCount, \"Record does not exist\");\n        return biometricRecords[_id];\n    }\n}\n",
  "sourcePath": "/Users/lekshyuen/Desktop/HackADay2024-CityU/hackaday2024/backend/contracts/BiometricStorage.sol",
  "compiler": {
    "name": "solc",
    "version": "0.8.17+commit.8df45f5f.Emscripten.clang"
  },
  "schemaVersion": "3.4.16",
  "updatedAt": "2024-10-29T16:22:17.197Z",
  "networkType": "ethereum",
  "devdoc": {
    "kind": "dev",
    "methods": {},
    "version": 1
  },
  "userdoc": {
    "kind": "user",
    "methods": {},
    "version": 1
  }
}